{"abi":[{"type":"function","name":"getBalance","inputs":[],"outputs":[{"name":"","type":"uint256","internalType":"uint256"}],"stateMutability":"view"},{"type":"function","name":"test","inputs":[],"outputs":[{"name":"","type":"string","internalType":"string"}],"stateMutability":"pure"}],"bytecode":{"object":"0x6080604052348015600e575f5ffd5b506101af8061001c5f395ff3fe608060405234801561000f575f5ffd5b5060043610610034575f3560e01c806312065fe014610038578063f8a8fd6d14610056575b5f5ffd5b610040610074565b60405161004d91906100d0565b60405180910390f35b61005e61007b565b60405161006b9190610159565b60405180910390f35b5f47905090565b60606040518060400160405280600c81526020017f48656c6c6f20576f726c64210000000000000000000000000000000000000000815250905090565b5f819050919050565b6100ca816100b8565b82525050565b5f6020820190506100e35f8301846100c1565b92915050565b5f81519050919050565b5f82825260208201905092915050565b8281835e5f83830152505050565b5f601f19601f8301169050919050565b5f61012b826100e9565b61013581856100f3565b9350610145818560208601610103565b61014e81610111565b840191505092915050565b5f6020820190508181035f8301526101718184610121565b90509291505056fea2646970667358221220fcbb535d2125279c9cb5ab7ece9b13157945acdd3b2dbef4ce081cc5bf6b9ce264736f6c634300081e0033","linkReferences":{}},"methodIdentifiers":{"getBalance()":"12065fe0","test()":"f8a8fd6d"},"id":0}