{"abi":[{"type":"function","name":"longETH","inputs":[{"name":"executionFee","type":"uint256","internalType":"uint256"},{"name":"acceptablePrice","type":"uint256","internalType":"uint256"}],"outputs":[{"name":"","type":"bytes32","internalType":"bytes32"}],"stateMutability":"payable"},{"type":"function","name":"simulateOrderWithPrices","inputs":[{"name":"key","type":"bytes32","internalType":"bytes32"},{"name":"tokens","type":"address[]","internalType":"address[]"},{"name":"minPrices","type":"uint256[]","internalType":"uint256[]"},{"name":"maxPrices","type":"uint256[]","internalType":"uint256[]"}],"outputs":[{"name":"ok","type":"bool","internalType":"bool"},{"name":"reason","type":"string","internalType":"string"}],"stateMutability":"nonpayable"}],"bytecode":{"object":"0x6080604052348015600e575f5ffd5b506114498061001c5f395ff3fe608060405260043610610028575f3560e01c806333a67d171461002c578063f4f0bf451461005c575b5f5ffd5b61004660048036038101906100419190610972565b610099565b60405161005391906109c8565b60405180910390f35b348015610067575f5ffd5b50610082600480360381019061007d9190610ac1565b610604565b604051610090929190610c0f565b60405180910390f35b5f5f73602b805eedddbbd9ddff44a7dcbd46cb0784968590508073ffffffffffffffffffffffffffffffffffffffff16637d39aaf1857331ef83a530fde1b38ee9a18093a333d8bbbc40d5876040518463ffffffff1660e01b8152600401610102929190610c8b565b5f604051808303818588803b158015610119575f5ffd5b505af115801561012b573d5f5f3e3d5ffd5b505050505073af88d065e77c8cc2239327c5edb3a432268e583173ffffffffffffffffffffffffffffffffffffffff1663095ea7b37331ef83a530fde1b38ee9a18093a333d8bbbc40d5629896806040518363ffffffff1660e01b8152600401610196929190610cf4565b6020604051808303815f875af11580156101b2573d5f5f3e3d5ffd5b505050506040513d601f19601f820116820180604052508101906101d69190610d45565b5073af88d065e77c8cc2239327c5edb3a432268e583173ffffffffffffffffffffffffffffffffffffffff1663095ea7b3737452c558d45f8afc8c83dae62c3f8a5be19c71f6629896806040518363ffffffff1660e01b815260040161023d929190610cf4565b6020604051808303815f875af1158015610259573d5f5f3e3d5ffd5b505050506040513d601f19601f8201168201806040525081019061027d9190610d45565b508073ffffffffffffffffffffffffffffffffffffffff1663e6d66ac873af88d065e77c8cc2239327c5edb3a432268e58317331ef83a530fde1b38ee9a18093a333d8bbbc40d5629896806040518463ffffffff1660e01b81526004016102e693929190610d70565b5f604051808303815f87803b1580156102fd575f5ffd5b505af115801561030f573d5f5f3e3d5ffd5b505050505f600167ffffffffffffffff81111561032f5761032e610da5565b5b60405190808252806020026020018201604052801561035d5781602001602082028036833780820191505090505b50905073450bb6774dd8a756274e0ab4107953259d2ac541815f8151811061038857610387610dd2565b5b602002602001019073ffffffffffffffffffffffffffffffffffffffff16908173ffffffffffffffffffffffffffffffffffffffff16815250505f6040518061010001604052806040518060e0016040528073f39fd6e51aad88f6f4ce6ab8827279cfffb9226673ffffffffffffffffffffffffffffffffffffffff1681526020015f73ffffffffffffffffffffffffffffffffffffffff1681526020015f73ffffffffffffffffffffffffffffffffffffffff16815260200173ff0000000000000000000000000000000000000173ffffffffffffffffffffffffffffffffffffffff16815260200173450bb6774dd8a756274e0ab4107953259d2ac54173ffffffffffffffffffffffffffffffffffffffff16815260200173af88d065e77c8cc2239327c5edb3a432268e583173ffffffffffffffffffffffffffffffffffffffff1681526020018581525081526020016040518061010001604052806e03da137d5b0f806f1b1cc80000000081526020016298968081526020015f81526020018881526020018981526020015f81526020015f81526020015f8152508152602001600260088111156105405761053f610dff565b5b81526020015f600281111561055857610557610dff565b5b81526020016001151581526020015f151581526020015f151581526020015f5f1b81525090508273ffffffffffffffffffffffffffffffffffffffff16636996807b87836040518363ffffffff1660e01b81526004016105b89190611188565b60206040518083038185885af11580156105d4573d5f5f3e3d5ffd5b50505050506040513d601f19601f820116820180604052508101906105f991906111bc565b935050505092915050565b5f6060858590508888905014801561062157508383905088889050145b610660576040517f08c379a000000000000000000000000000000000000000000000000000000000815260040161065790611231565b60405180910390fd5b5f8888905067ffffffffffffffff81111561067e5761067d610da5565b5b6040519080825280602002602001820160405280156106b757816020015b6106a461091f565b81526020019060019003908161069c5790505b5090505f5f90505b8989905081101561073c5760405180604001604052808989848181106106e8576106e7610dd2565b5b90506020020135815260200187878481811061070757610706610dd2565b5b9050602002013581525082828151811061072457610723610dd2565b5b602002602001018190525080806001019150506106bf565b505f73602b805eedddbbd9ddff44a7dcbd46cb0784968590505f60405180608001604052808c8c808060200260200160405190810160405280939291908181526020018383602002808284375f81840152601f19601f8201169050808301925050505050505081526020018481526020014281526020014281525090505f5f73602b805eedddbbd9ddff44a7dcbd46cb0784968573ffffffffffffffffffffffffffffffffffffffff1663a7115fa860e01b8f8560405160240161080192919061138b565b604051602081830303815290604052907bffffffffffffffffffffffffffffffffffffffffffffffffffffffff19166020820180517bffffffffffffffffffffffffffffffffffffffffffffffffffffffff838183161783525050505060405161086b91906113fd565b5f60405180830381855afa9150503d805f81146108a3576040519150601f19603f3d011682016040523d82523d5f602084013e6108a8565b606091505b509150915081156108d257600160405180602001604052805f815250965096505050505050610913565b5f6040518060400160405280601181526020017f53696d756c6174696f6e206661696c65640000000000000000000000000000008152509650965050505050505b97509795505050505050565b60405180604001604052805f81526020015f81525090565b5f5ffd5b5f5ffd5b5f819050919050565b6109518161093f565b811461095b575f5ffd5b50565b5f8135905061096c81610948565b92915050565b5f5f6040838503121561098857610987610937565b5b5f6109958582860161095e565b92505060206109a68582860161095e565b9150509250929050565b5f819050919050565b6109c2816109b0565b82525050565b5f6020820190506109db5f8301846109b9565b92915050565b6109ea816109b0565b81146109f4575f5ffd5b50565b5f81359050610a05816109e1565b92915050565b5f5ffd5b5f5ffd5b5f5ffd5b5f5f83601f840112610a2c57610a2b610a0b565b5b8235905067ffffffffffffffff811115610a4957610a48610a0f565b5b602083019150836020820283011115610a6557610a64610a13565b5b9250929050565b5f5f83601f840112610a8157610a80610a0b565b5b8235905067ffffffffffffffff811115610a9e57610a9d610a0f565b5b602083019150836020820283011115610aba57610ab9610a13565b5b9250929050565b5f5f5f5f5f5f5f6080888a031215610adc57610adb610937565b5b5f610ae98a828b016109f7565b975050602088013567ffffffffffffffff811115610b0a57610b0961093b565b5b610b168a828b01610a17565b9650965050604088013567ffffffffffffffff811115610b3957610b3861093b565b5b610b458a828b01610a6c565b9450945050606088013567ffffffffffffffff811115610b6857610b6761093b565b5b610b748a828b01610a6c565b925092505092959891949750929550565b5f8115159050919050565b610b9981610b85565b82525050565b5f81519050919050565b5f82825260208201905092915050565b8281835e5f83830152505050565b5f601f19601f8301169050919050565b5f610be182610b9f565b610beb8185610ba9565b9350610bfb818560208601610bb9565b610c0481610bc7565b840191505092915050565b5f604082019050610c225f830185610b90565b8181036020830152610c348184610bd7565b90509392505050565b5f73ffffffffffffffffffffffffffffffffffffffff82169050919050565b5f610c6682610c3d565b9050919050565b610c7681610c5c565b82525050565b610c858161093f565b82525050565b5f604082019050610c9e5f830185610c6d565b610cab6020830184610c7c565b9392505050565b5f819050919050565b5f819050919050565b5f610cde610cd9610cd484610cb2565b610cbb565b61093f565b9050919050565b610cee81610cc4565b82525050565b5f604082019050610d075f830185610c6d565b610d146020830184610ce5565b9392505050565b610d2481610b85565b8114610d2e575f5ffd5b50565b5f81519050610d3f81610d1b565b92915050565b5f60208284031215610d5a57610d59610937565b5b5f610d6784828501610d31565b91505092915050565b5f606082019050610d835f830186610c6d565b610d906020830185610c6d565b610d9d6040830184610ce5565b949350505050565b7f4e487b71000000000000000000000000000000000000000000000000000000005f52604160045260245ffd5b7f4e487b71000000000000000000000000000000000000000000000000000000005f52603260045260245ffd5b7f4e487b71000000000000000000000000000000000000000000000000000000005f52602160045260245ffd5b610e3581610c5c565b82525050565b5f81519050919050565b5f82825260208201905092915050565b5f819050602082019050919050565b5f610e6f8383610e2c565b60208301905092915050565b5f602082019050919050565b5f610e9182610e3b565b610e9b8185610e45565b9350610ea683610e55565b805f5b83811015610ed6578151610ebd8882610e64565b9750610ec883610e7b565b925050600181019050610ea9565b5085935050505092915050565b5f60e083015f830151610ef85f860182610e2c565b506020830151610f0b6020860182610e2c565b506040830151610f1e6040860182610e2c565b506060830151610f316060860182610e2c565b506080830151610f446080860182610e2c565b5060a0830151610f5760a0860182610e2c565b5060c083015184820360c0860152610f6f8282610e87565b9150508091505092915050565b610f858161093f565b82525050565b61010082015f820151610fa05f850182610f7c565b506020820151610fb36020850182610f7c565b506040820151610fc66040850182610f7c565b506060820151610fd96060850182610f7c565b506080820151610fec6080850182610f7c565b5060a0820151610fff60a0850182610f7c565b5060c082015161101260c0850182610f7c565b5060e082015161102560e0850182610f7c565b50505050565b6009811061103c5761103b610dff565b5b50565b5f81905061104c8261102b565b919050565b5f61105b8261103f565b9050919050565b61106b81611051565b82525050565b6003811061108257611081610dff565b5b50565b5f81905061109282611071565b919050565b5f6110a182611085565b9050919050565b6110b181611097565b82525050565b6110c081610b85565b82525050565b6110cf816109b0565b82525050565b5f6101e083015f8301518482035f8601526110f08282610ee3565b91505060208301516111056020860182610f8b565b506040830151611119610120860182611062565b50606083015161112d6101408601826110a8565b5060808301516111416101608601826110b7565b5060a08301516111556101808601826110b7565b5060c08301516111696101a08601826110b7565b5060e083015161117d6101c08601826110c6565b508091505092915050565b5f6020820190508181035f8301526111a081846110d5565b905092915050565b5f815190506111b6816109e1565b92915050565b5f602082840312156111d1576111d0610937565b5b5f6111de848285016111a8565b91505092915050565b7f6c656e206d69736d6174636800000000000000000000000000000000000000005f82015250565b5f61121b600c83610ba9565b9150611226826111e7565b602082019050919050565b5f6020820190508181035f8301526112488161120f565b9050919050565b5f81519050919050565b5f82825260208201905092915050565b5f819050602082019050919050565b604082015f82015161128c5f850182610f7c565b50602082015161129f6020850182610f7c565b50505050565b5f6112b08383611278565b60408301905092915050565b5f602082019050919050565b5f6112d28261124f565b6112dc8185611259565b93506112e783611269565b805f5b838110156113175781516112fe88826112a5565b9750611309836112bc565b9250506001810190506112ea565b5085935050505092915050565b5f608083015f8301518482035f86015261133e8282610e87565b9150506020830151848203602086015261135882826112c8565b915050604083015161136d6040860182610f7c565b5060608301516113806060860182610f7c565b508091505092915050565b5f60408201905061139e5f8301856109b9565b81810360208301526113b08184611324565b90509392505050565b5f81519050919050565b5f81905092915050565b5f6113d7826113b9565b6113e181856113c3565b93506113f1818560208601610bb9565b80840191505092915050565b5f61140882846113cd565b91508190509291505056fea26469706673582212204a2dadd2f41250749d0e6c504b1722a8e9259d1ee8bde1135f4dc7f794e2581064736f6c634300081e0033","linkReferences":{}},"methodIdentifiers":{"longETH(uint256,uint256)":"33a67d17","simulateOrderWithPrices(bytes32,address[],uint256[],uint256[])":"f4f0bf45"},"id":5}