{"abi":[{"type":"function","name":"longETH","inputs":[{"name":"acceptablePrice","type":"uint256","internalType":"uint256"},{"name":"executionFee","type":"uint256","internalType":"uint256"}],"outputs":[],"stateMutability":"payable"},{"type":"function","name":"simulateOrderWithPrices","inputs":[{"name":"key","type":"bytes32","internalType":"bytes32"},{"name":"tokens","type":"address[]","internalType":"address[]"},{"name":"minPrices","type":"uint256[]","internalType":"uint256[]"},{"name":"maxPrices","type":"uint256[]","internalType":"uint256[]"}],"outputs":[{"name":"success","type":"bool","internalType":"bool"},{"name":"revertData","type":"bytes","internalType":"bytes"}],"stateMutability":"nonpayable"},{"type":"event","name":"OrderCreated","inputs":[{"name":"orderKey","type":"bytes32","indexed":true,"internalType":"bytes32"}],"anonymous":false}],"bytecode":{"object":"0x6080604052348015600e575f5ffd5b506115448061001c5f395ff3fe608060405260043610610028575f3560e01c806333a67d171461002c578063f4f0bf4514610048575b5f5ffd5b610046600480360381019061004191906109c9565b610085565b005b348015610053575f5ffd5b5061006e60048036038101906100699190610af0565b61061a565b60405161007c929190610c3e565b60405180910390f35b5f73602b805eedddbbd9ddff44a7dcbd46cb0784968590508073ffffffffffffffffffffffffffffffffffffffff16637d39aaf1837331ef83a530fde1b38ee9a18093a333d8bbbc40d5856040518463ffffffff1660e01b81526004016100ed929190610cba565b5f604051808303818588803b158015610104575f5ffd5b505af1158015610116573d5f5f3e3d5ffd5b505050505073af88d065e77c8cc2239327c5edb3a432268e583173ffffffffffffffffffffffffffffffffffffffff1663095ea7b37331ef83a530fde1b38ee9a18093a333d8bbbc40d5629896806040518363ffffffff1660e01b8152600401610181929190610cba565b6020604051808303815f875af115801561019d573d5f5f3e3d5ffd5b505050506040513d601f19601f820116820180604052508101906101c19190610d0b565b5073af88d065e77c8cc2239327c5edb3a432268e583173ffffffffffffffffffffffffffffffffffffffff1663095ea7b3737452c558d45f8afc8c83dae62c3f8a5be19c71f6629896806040518363ffffffff1660e01b8152600401610228929190610cba565b6020604051808303815f875af1158015610244573d5f5f3e3d5ffd5b505050506040513d601f19601f820116820180604052508101906102689190610d0b565b508073ffffffffffffffffffffffffffffffffffffffff1663e6d66ac873af88d065e77c8cc2239327c5edb3a432268e58317331ef83a530fde1b38ee9a18093a333d8bbbc40d5629896806040518463ffffffff1660e01b81526004016102d193929190610d36565b5f604051808303815f87803b1580156102e8575f5ffd5b505af11580156102fa573d5f5f3e3d5ffd5b505050505f600167ffffffffffffffff81111561031a57610319610d6b565b5b6040519080825280602002602001820160405280156103485781602001602082028036833780820191505090505b509050739f159014cc218e942e9e9481742fe5bfa9ac5a2c815f8151811061037357610372610d98565b5b602002602001019073ffffffffffffffffffffffffffffffffffffffff16908173ffffffffffffffffffffffffffffffffffffffff16815250505f6040518061010001604052806040518060e0016040528073ff7abdfc247539016a87257fa144fb95447647d973ffffffffffffffffffffffffffffffffffffffff1681526020015f73ffffffffffffffffffffffffffffffffffffffff1681526020015f73ffffffffffffffffffffffffffffffffffffffff16815260200173ff0000000000000000000000000000000000000173ffffffffffffffffffffffffffffffffffffffff16815260200173450bb6774dd8a756274e0ab4107953259d2ac54173ffffffffffffffffffffffffffffffffffffffff16815260200173af88d065e77c8cc2239327c5edb3a432268e583173ffffffffffffffffffffffffffffffffffffffff1681526020018581525081526020016040518061010001604052806c7e37be2022c0914b268000000081526020016298968081526020015f81526020018881526020018781526020015f81526020015f81526020015f81525081526020016002600881111561052957610528610dc5565b5b81526020015f600281111561054157610540610dc5565b5b81526020016001151581526020015f151581526020015f151581526020015f5f1b81525090505f8373ffffffffffffffffffffffffffffffffffffffff16636996807b86846040518363ffffffff1660e01b81526004016105a2919061114e565b60206040518083038185885af11580156105be573d5f5f3e3d5ffd5b50505050506040513d601f19601f820116820180604052508101906105e39190611182565b9050807f918554b6bd6e2895ce6553de5de0e1a69db5289aa0e4fe193a0dcd1f1434747760405160405180910390a2505050505050565b5f6060858590508888905014801561063757508383905088889050145b610676576040517f08c379a000000000000000000000000000000000000000000000000000000000815260040161066d90611207565b60405180910390fd5b5f8888905067ffffffffffffffff81111561069457610693610d6b565b5b6040519080825280602002602001820160405280156106cd57816020015b6106ba610976565b8152602001906001900390816106b25790505b5090505f5f90505b898990508110156107525760405180604001604052808989848181106106fe576106fd610d98565b5b90506020020135815260200187878481811061071d5761071c610d98565b5b9050602002013581525082828151811061073a57610739610d98565b5b602002602001018190525080806001019150506106d5565b505f60405180608001604052808b8b808060200260200160405190810160405280939291908181526020018383602002808284375f81840152601f19601f8201169050808301925050505050505081526020018381526020014281526020016032426107be9190611252565b81525090505f5f73602b805eedddbbd9ddff44a7dcbd46cb0784968573ffffffffffffffffffffffffffffffffffffffff1663a7115fa860e01b8e8560405160240161080b9291906113d0565b604051602081830303815290604052907bffffffffffffffffffffffffffffffffffffffffffffffffffffffff19166020820180517bffffffffffffffffffffffffffffffffffffffffffffffffffffffff83818316178352505050506040516108759190611438565b5f604051808303815f865af19150503d805f81146108ae576040519150601f19603f3d011682016040523d82523d5f602084013e6108b3565b606091505b509150915081156108dc57600160405180602001604052805f815250955095505050505061096a565b600481511061095f575f816108f0906114a8565b9050634e48dcda60e01b7bffffffffffffffffffffffffffffffffffffffffffffffffffffffff1916817bffffffffffffffffffffffffffffffffffffffffffffffffffffffff19160361095d57600160405180602001604052805f81525096509650505050505061096a565b505b5f8195509550505050505b97509795505050505050565b60405180604001604052805f81526020015f81525090565b5f5ffd5b5f5ffd5b5f819050919050565b6109a881610996565b81146109b2575f5ffd5b50565b5f813590506109c38161099f565b92915050565b5f5f604083850312156109df576109de61098e565b5b5f6109ec858286016109b5565b92505060206109fd858286016109b5565b9150509250929050565b5f819050919050565b610a1981610a07565b8114610a23575f5ffd5b50565b5f81359050610a3481610a10565b92915050565b5f5ffd5b5f5ffd5b5f5ffd5b5f5f83601f840112610a5b57610a5a610a3a565b5b8235905067ffffffffffffffff811115610a7857610a77610a3e565b5b602083019150836020820283011115610a9457610a93610a42565b5b9250929050565b5f5f83601f840112610ab057610aaf610a3a565b5b8235905067ffffffffffffffff811115610acd57610acc610a3e565b5b602083019150836020820283011115610ae957610ae8610a42565b5b9250929050565b5f5f5f5f5f5f5f6080888a031215610b0b57610b0a61098e565b5b5f610b188a828b01610a26565b975050602088013567ffffffffffffffff811115610b3957610b38610992565b5b610b458a828b01610a46565b9650965050604088013567ffffffffffffffff811115610b6857610b67610992565b5b610b748a828b01610a9b565b9450945050606088013567ffffffffffffffff811115610b9757610b96610992565b5b610ba38a828b01610a9b565b925092505092959891949750929550565b5f8115159050919050565b610bc881610bb4565b82525050565b5f81519050919050565b5f82825260208201905092915050565b8281835e5f83830152505050565b5f601f19601f8301169050919050565b5f610c1082610bce565b610c1a8185610bd8565b9350610c2a818560208601610be8565b610c3381610bf6565b840191505092915050565b5f604082019050610c515f830185610bbf565b8181036020830152610c638184610c06565b90509392505050565b5f73ffffffffffffffffffffffffffffffffffffffff82169050919050565b5f610c9582610c6c565b9050919050565b610ca581610c8b565b82525050565b610cb481610996565b82525050565b5f604082019050610ccd5f830185610c9c565b610cda6020830184610cab565b9392505050565b610cea81610bb4565b8114610cf4575f5ffd5b50565b5f81519050610d0581610ce1565b92915050565b5f60208284031215610d2057610d1f61098e565b5b5f610d2d84828501610cf7565b91505092915050565b5f606082019050610d495f830186610c9c565b610d566020830185610c9c565b610d636040830184610cab565b949350505050565b7f4e487b71000000000000000000000000000000000000000000000000000000005f52604160045260245ffd5b7f4e487b71000000000000000000000000000000000000000000000000000000005f52603260045260245ffd5b7f4e487b71000000000000000000000000000000000000000000000000000000005f52602160045260245ffd5b610dfb81610c8b565b82525050565b5f81519050919050565b5f82825260208201905092915050565b5f819050602082019050919050565b5f610e358383610df2565b60208301905092915050565b5f602082019050919050565b5f610e5782610e01565b610e618185610e0b565b9350610e6c83610e1b565b805f5b83811015610e9c578151610e838882610e2a565b9750610e8e83610e41565b925050600181019050610e6f565b5085935050505092915050565b5f60e083015f830151610ebe5f860182610df2565b506020830151610ed16020860182610df2565b506040830151610ee46040860182610df2565b506060830151610ef76060860182610df2565b506080830151610f0a6080860182610df2565b5060a0830151610f1d60a0860182610df2565b5060c083015184820360c0860152610f358282610e4d565b9150508091505092915050565b610f4b81610996565b82525050565b61010082015f820151610f665f850182610f42565b506020820151610f796020850182610f42565b506040820151610f8c6040850182610f42565b506060820151610f9f6060850182610f42565b506080820151610fb26080850182610f42565b5060a0820151610fc560a0850182610f42565b5060c0820151610fd860c0850182610f42565b5060e0820151610feb60e0850182610f42565b50505050565b6009811061100257611001610dc5565b5b50565b5f81905061101282610ff1565b919050565b5f61102182611005565b9050919050565b61103181611017565b82525050565b6003811061104857611047610dc5565b5b50565b5f81905061105882611037565b919050565b5f6110678261104b565b9050919050565b6110778161105d565b82525050565b61108681610bb4565b82525050565b61109581610a07565b82525050565b5f6101e083015f8301518482035f8601526110b68282610ea9565b91505060208301516110cb6020860182610f51565b5060408301516110df610120860182611028565b5060608301516110f361014086018261106e565b50608083015161110761016086018261107d565b5060a083015161111b61018086018261107d565b5060c083015161112f6101a086018261107d565b5060e08301516111436101c086018261108c565b508091505092915050565b5f6020820190508181035f830152611166818461109b565b905092915050565b5f8151905061117c81610a10565b92915050565b5f602082840312156111975761119661098e565b5b5f6111a48482850161116e565b91505092915050565b5f82825260208201905092915050565b7f6c656e206d69736d6174636800000000000000000000000000000000000000005f82015250565b5f6111f1600c836111ad565b91506111fc826111bd565b602082019050919050565b5f6020820190508181035f83015261121e816111e5565b9050919050565b7f4e487b71000000000000000000000000000000000000000000000000000000005f52601160045260245ffd5b5f61125c82610996565b915061126783610996565b925082820190508082111561127f5761127e611225565b5b92915050565b61128e81610a07565b82525050565b5f81519050919050565b5f82825260208201905092915050565b5f819050602082019050919050565b604082015f8201516112d15f850182610f42565b5060208201516112e46020850182610f42565b50505050565b5f6112f583836112bd565b60408301905092915050565b5f602082019050919050565b5f61131782611294565b611321818561129e565b935061132c836112ae565b805f5b8381101561135c57815161134388826112ea565b975061134e83611301565b92505060018101905061132f565b5085935050505092915050565b5f608083015f8301518482035f8601526113838282610e4d565b9150506020830151848203602086015261139d828261130d565b91505060408301516113b26040860182610f42565b5060608301516113c56060860182610f42565b508091505092915050565b5f6040820190506113e35f830185611285565b81810360208301526113f58184611369565b90509392505050565b5f81905092915050565b5f61141282610bce565b61141c81856113fe565b935061142c818560208601610be8565b80840191505092915050565b5f6114438284611408565b915081905092915050565b5f819050602082019050919050565b5f7fffffffff0000000000000000000000000000000000000000000000000000000082169050919050565b5f611493825161145d565b80915050919050565b5f82821b905092915050565b5f6114b282610bce565b826114bc8461144e565b90506114c781611488565b92506004821015611507576115027fffffffff000000000000000000000000000000000000000000000000000000008360040360080261149c565b831692505b505091905056fea2646970667358221220708217be15786e9c8f1dc44ba558ebe3790ddd203f324cbe4e4a66b0cbb570b164736f6c634300081e0033","linkReferences":{}},"methodIdentifiers":{"longETH(uint256,uint256)":"33a67d17","simulateOrderWithPrices(bytes32,address[],uint256[],uint256[])":"f4f0bf45"},"id":24}